:020000040800F2
:100000000000012025790008C10C0008CF0C000871
:10001000D50C0008DB0C0008E10C00080000000013
:10002000000000000000000000000000E70C0008D5
:10003000F50C000800000000030D0008110D000879
:1000400075790008757900087579000875790008D8
:1000500075790008757900087579000875790008C8
:1000600075790008757900087579000875790008B8
:1000700075790008757900087579000875790008A8
:10008000757900087579000875790008000000008E
:10009000000000000000000000000000757900086A
:1000A0007579000875790008757900087579000878
:1000B0007579000875790008757900087579000868
:1000C0007579000875790008757900087579000858
:1000D000757900087579000875790008000000003E
:1000E000757900087579000875790008000000002E
:1000F000000000000000000000000000757900080A
:10010000000000007579000875790008757900080D
:1001100000000000000000000000000000000000DF
:1001200075790008757900087579000875790008F7
:1001300075790008000000000000000000000000C9
:100140000000000000000000000000001D0D00087D
:1001500075790008757900087579000875790008C7
:1001600075790008757900080000000000000000A3
:10017000000000000000000000000000000000007F
:100180000000000075790008000000000000000079
:040190007579000875
:1001940010B5054C237833B9044B13B10448AFF3BD
:1001A40000800123237010BD900000200000000097
:1001B400787B000808B5034B1BB103490348AFF330
:1001C400008008BD0000000094000020787B000837
:1001D40053B94AB9002908BF00281CBF4FF0FF31AA
:1001E4004FF0FF3000F07AB9ADF1080C6DE904CEA0
:1001F40000F006F8DDF804E0DDE9022304B07047FE
:100204002DE9F0478C460D460446089E002B51D13B
:100214008A4217466DD9B2FA82FEBEF1000F0BD0A6
:10022400CEF1200C01FA0EF520FA0CFC02FA0EF7BE
:100234004CEA050C00FA0EF44FEA174A250CBCFBF5
:10024400FAF81FFA87F90AFB18CC45EA0C4508FBB3
:1002540009F3AB420AD9ED1908F1FF3280F023818A
:10026400AB4240F22081A8F102083D44ED1AA4B249
:10027400B5FBFAF00AFB105544EA054400FB09F902
:10028400A14509D9E41900F1FF3380F00A81A145A1
:1002940040F2078102383C44A4EB090440EA0840D8
:1002A4000021002E61D024FA0EF400233460736020
:1002B400BDE8F0878B4207D9002E54D0002186E890
:1002C40021000846BDE8F087B3FA83F1002940F025
:1002D4008E80AB4202D3824200F2FA80841A65EB2C
:1002E40003050120AC46002E3FD086E81010BDE87F
:1002F400F08712B90127B7FBF2F7B7FA87FEBEF110
:10030400000F34D1EB1B3A0C1FFA87FC0121B3FB1D
:10031400F2F8250C02FB183345EA03450CFB08F3FD
:10032400AB4207D9ED1908F1FF3002D2AB4200F21B
:10033400D1808046ED1AA3B2B5FBF2F002FB105552
:1003440043EA05440CFB00FCA44507D9E41900F179
:10035400FF3302D2A44500F2B8801846A4EB0C0483
:1003640040EA08409DE731463046BDE8F087CEF1CB
:10037400200405FA0EF307FA0EF720FA04F83A0CF3
:1003840025FA04F448EA0308B4FBF2F14FEA1845ED
:1003940002FB11441FFA87FC45EA044501FB0CF3F8
:1003A400AB4200FA0EF409D9ED1901F1FF3080F0E7
:1003B4008A80AB4240F2878002393D44EB1A1FFA2F
:1003C40088F5B3FBF2F002FB103345EA034500FB6A
:1003D4000CF3AB4207D9ED1900F1FF386FD2AB42F1
:1003E4006DD902383D44EB1A40EA01418FE7C1F16F
:1003F400200722FA07F88B4005FA01F448EA0303C0
:1004040020FA07FE4FEA134CFD404EEA040EB5FBFA
:10041400FCF94FEA1E440CFB19551FFA83F844EA11
:10042400054509FB08F4AC4202FA01F200FA01FAAC
:1004340008D9ED1809F1FF3043D2AC4241D9A9F1F2
:1004440002091D442D1B1FFA8EFEB5FBFCF00CFBAC
:1004540010554EEA054400FB08F8A04507D9E418F6
:1004640000F1FF3529D2A04527D902381C4440EABF
:100474000940A4EB0804A0FB02894C45C6464D463E
:1004840015D312D056B1BAEB0E0364EB050404FA8B
:1004940007F7CB401F43CC40376074600021BDE8B0
:1004A400F0871846F8E69046E0E6C245EAD2B8EB93
:1004B400020E69EB03050138E4E72846D7E7404616
:1004C40091E78146BEE7014678E702383C4445E7B8
:1004D400084608E7A8F102083D442BE7704700BF2F
:1004E40080B500AF00F064FC00F04AF800F08EF92B
:1004F40000F0CAF800F0F6F800F022F900F050F924
:1005040006F006FF01211C4800F078FF0346012B8A
:1005140017D14FF40051194800F0A1FF4FF4805156
:10052400164800F09CFF4FF48041144800F097FFF8
:100534004FF40041114800F092FF642000F0AAFC3F
:1005440017E000224FF400510C4800F06FFF002226
:100554004FF48051094800F069FF00224FF48041B4
:10056400064800F063FF00224FF40041034800F006
:100574005DFF06F0F3FEC5E700000240000C0240F8
:1005840080B598B000AF07F130033022002118463F
:1005940007F02AFA07F11C0300221A605A609A60D5
:1005A400DA601A6107F1080300221A605A609A603F
:1005B400DA601A6100237B60314A314B1B6C43F0D3
:1005C400805313642E4B1B6C03F080537B607B6859
:1005D40000233B602B4A2B4B1B6823F4404343F41A
:1005E40000431360274B1B6803F440433B603B68A4
:1005F40001233B634FF480337B630223BB644FF4DA
:100604008003FB6408233B654FF4A8737B650423D4
:10061400BB650723FB6507F13003184603F018FA9E
:100624000346002B01D000F0CBF90F23FB6102231A
:100634003B6200237B624FF48053BB620023FB6266
:1006440007F11C030221184603F072FC0346002B39
:1006540001D000F0B5F90123BB60C023FB60022385
:100664003B6107F10803184603F040FE0346002BE4
:1006740001D000F0A5F900BF6037BD4680BD00BFC2
:10068400003802400070004080B500AF124B134A9E
:100694001A60114B124A5A600F4B00229A600E4B9B
:1006A4000022DA600C4B4FF480421A610A4B00229C
:1006B4005A61094B00229A61074B0022DA61064B0A
:1006C40000221A62044802F0EDFB0346002B01D01D
:1006D40000F076F900BF80BDC00000200054004047
:1006E400A086010080B500AF134B144A1A60124B68
:1006F4004FF400725A60104B00229A600E4B002295
:10070400DA600D4B00221A610B4B4FF4FA525A6116
:10071400094B00229A61084B0022DA61064B002241
:100724001A62054802F0F6FC0346002B01D000F0E3
:1007340047F900BF80BD00BF6C01002000380040B5
:1007440080B500AF134B144A1A60124B4FF4007279
:100754005A60104B00229A600E4B0022DA600D4B57
:100764004FF400721A610B4B0C4A5A61094B002278
:100774009A61084B0022DA61064B00221A6205488E
:1007840002F0C8FC0346002B01D000F019F900BFA9
:1007940080BD00BFB4010020003C00400077010090
:1007A40080B500AF174B184A1A60164B4FF482728B
:1007B4005A60144B00229A60124B0022DA60114BEB
:1007C40000221A610F4B00225A610E4B4FF4007243
:1007D4009A610C4B0022DA610A4B00221A62094B1F
:1007E40000225A62074B00229A62064B0A22DA62FE
:1007F400044803F0C5FE0346002B01D000F0E0F8E6
:1008040000BF80BD140100200030014080B58CB0D1
:1008140000AF07F11C0300221A605A609A60DA6084
:100824001A610023BB61604A5F4B1B6B43F01003EA
:1008340013635D4B1B6B03F01003BB61BB690023A7
:100844007B61594A584B1B6B43F004031363564BAB
:100854001B6B03F004037B617B6900233B61524AF9
:10086400514B1B6B43F0800313634F4B1B6B03F023
:1008740080033B613B690023FB604B4A4A4B1B6B83
:1008840043F001031363484B1B6B03F00103FB604C
:10089400FB680023BB60444A434B1B6B43F00203D9
:1008A4001363414B1B6B03F00203BB60BB68002363
:1008B4007B603D4A3C4B1B6B43F0080313633A4B8C
:1008C4001B6B03F008037B607B6800220821374818
:1008D40000F0ACFD01220121354800F0A7FD002203
:1008E4004FF21001334800F0A1FD0423FB61002303
:1008F4003B6200237B6207F11C0319462B4800F07E
:10090400FBFB0823FB6101233B6200237B62002382
:10091400BB6207F11C031946244800F0EDFB3223A7
:10092400FB61254B3B6200237B6207F11C031946E4
:100934001E4800F0E1FB0123FB6101233B6200231D
:100944007B620023BB6207F11C031946184800F0C0
:10095400D3FB0123FB6100233B6200237B6207F18D
:100964001C031946154800F0C7FB4FF21003FB6146
:1009740001233B6200237B620023BB6207F11C035B
:1009840019460C4800F0B8FB2023FB6100233B62AE
:1009940000237B6207F11C031946064800F0ACFBF8
:1009A40000BF3037BD4680BD003802400010024011
:1009B40000080240000C0240000012100000024037
:1009C40080B400AF00BFBD465DF8047B70470000F3
:1009D40080B582B000AF00237B60104A0F4B5B6C84
:1009E40043F4804353640D4B5B6C03F480437B609E
:1009F4007B6800233B60094A084B1B6C43F080531F
:100A04001364064B1B6C03F080533B603B68072068
:100A140000F030FB00BF0837BD4680BD00380240FF
:100A240080B58AB000AF786007F1140300221A6021
:100A34005A609A60DA601A617B681B68194A9342AB
:100A44002CD100233B61184A174B1B6B43F0020364
:100A54001363154B1B6B03F002033B613B694FF4BB
:100A640010737B611223BB610123FB6100233B6292
:100A740004237B6207F1140319460C4800F03CFB85
:100A84000023FB60084A084B1B6C43F400131364F7
:100A9400054B1B6C03F40013FB60FB6800BF283795
:100AA400BD4680BD005400400038024000040240AE
:100AB40080B58EB000AF786007F1240300221A607D
:100AC4005A609A60DA601A617B681B68514A9342E3
:100AD4004BD100233B62504A4F4B1B6C43F4804381
:100AE40013644D4B1B6C03F480433B623B6A00234D
:100AF400FB61494A484B1B6B43F004031363464BA9
:100B04001B6B03F00403FB61FB690023BB61424AD6
:100B1400414B1B6B43F0020313633F4B1B6B03F00E
:100B24000203BB61BB6908237B620223BB6200230F
:100B3400FB6200233B6305237B6307F1240319460F
:100B4400364800F0D9FA4FF4A0537B620223BB620B
:100B54000023FB6200233B6305237B6307F124032B
:100B640019462F4800F0C8FA4FE07B681B682D4AED
:100B740093424AD100237B61274A274B1B6C43F4E1
:100B840000431364244B1B6C03F400437B617B69B7
:100B940000233B61204A204B1B6B43F0010313638A
:100BA4001D4B1B6B03F001033B613B690023FB609E
:100BB400194A194B1B6B43F004031363164B1B6B4D
:100BC40003F00403FB60FB6810237B620223BB6217
:100BD4000023FB6200233B6306237B6307F12403AA
:100BE4001946114800F088FA4FF4A4537B6202239B
:100BF400BB620023FB6200233B6306237B6307F194
:100C040024031946054800F077FA00BF3837BD467B
:100C140080BD00BF00380040003802400008024098
:100C240000040240003C00400000024080B58AB04D
:100C340000AF786007F1140300221A605A609A60CA
:100C4400DA601A617B681B68194A93422BD100232E
:100C54003B61184A174B5B6C43F480535364154B48
:100C64005B6C03F480533B613B690023FB60114AD6
:100C7400104B1B6B43F0010313630E4B1B6B03F010
:100C84000103FB60FB68E0237B610223BB6100235B
:100C9400FB6103233B6205237B6207F114031946BE
:100CA400054800F029FA00BF2837BD4680BD00BFC3
:100CB40000300140003802400000024080B400AF20
:100CC40000BFBD465DF8047B704780B400AFFEE70B
:100CD40080B400AFFEE780B400AFFEE780B400AF9D
:100CE400FEE780B400AF00BFBD465DF8047B7047EB
:100CF40080B400AF00BFBD465DF8047B704780B48C
:100D040000AF00BFBD465DF8047B704780B500AFFF
:100D140000F0A0F800BF80BD80B500AF024800F02D
:100D240049FE00BF80BD00BFD805002080B584B057
:100D340000AF7860114B1B68002B02D10F4B104A97
:100D44001A600E4B1B68FB600C4B1A687B681344DB
:100D54006A46934207D906F00DFE02460C2313603F
:100D64004FF0FF3306E0054B1A687B681344034ACF
:100D74001360FB6818461037BD4680BDAC000020E8
:100D8400A008002080B400AF084A084BD3F888308C
:100D940043F47003C2F88830044B4FF000629A6049
:100DA40000BFBD465DF8047B704700BF00ED00E066
:100DB40080B500AF0E4A0E4B1B6843F400731360FA
:100DC4000B4A0B4B1B6843F480631360084A084BBF
:100DD4001B6843F480731360032000F04BF9002078
:100DE40000F008F8FFF7F4FD0023184680BD00BFAB
:100DF400003C024080B582B000AF7860124B1A68A4
:100E0400124B1B7819464FF47A73B3FBF1F3B2FB20
:100E1400F3F3184600F063F90346002B01D00123D5
:100E24000EE07B680F2B0AD8002279684FF0FF3060
:100E340000F02BF9064A7B681360002300E00123CD
:100E440018460837BD4680BD000000200800002079
:100E54000400002080B400AF064B1B781A46064BF2
:100E64001B681344044A136000BFBD465DF8047B4D
:100E7400704700BF08000020FC01002080B400AFD0
:100E8400034B1B681846BD465DF8047B704700BFE2
:100E9400FC01002080B584B000AF7860FFF7EEFF5E
:100EA400B8607B68FB60FB68B3F1FF3F05D0094B7A
:100EB4001B781A46FB681344FB6000BFFFF7DEFF94
:100EC4000246BB68D21AFB689A42F7D300BF1037B8
:100ED400BD4680BD0800002080B485B000AF7860B6
:100EE4007B6803F00703FB600C4BDB68BB60BA68EC
:100EF4004FF6FF031340BB60FB681A02BB68134341
:100F040043F0BF6343F40033BB60044ABB68D3605F
:100F140000BF1437BD465DF8047B704700ED00E068
:100F240080B400AF044BDB681B0A03F007031846C8
:100F3400BD465DF8047B704700ED00E080B483B0EB
:100F440000AF0346FB7197F90730002B0BDB09490F
:100F540097F907305B09FA7902F01F02012000FAC1
:100F640002F241F8232000BF0C37BD465DF8047B34
:100F7400704700BF00E100E080B483B000AF0346D7
:100F84003960FB7197F90730002B0ADB0D4997F99B
:100F940007303A68D2B21201D2B20B4483F800236C
:100FA4000AE00949FB7903F00F03043B3A68D2B223
:100FB4001201D2B20B441A7600BF0C37BD465DF85D
:100FC400047B704700E100E000ED00E080B489B0EC
:100FD40000AFF860B9607A60FB6803F00703FB6157
:100FE400FB69C3F10703042B28BF0423BB61FB691E
:100FF4000433062B02D9FB69033B00E000237B6129
:101004000122BB6902FA03F35A1EBB681A407B69CA
:101014009A4001217B6901FA03F3591E7B680B4056
:10102400134318462437BD465DF8047B704700001F
:1010340080B582B000AF78607B68013BB3F1807FFC
:1010440001D301230FE00A4A7B68013B53600F215F
:101054004FF0FF30FFF790FF054B00229A60044BDE
:1010640007221A60002318460837BD4680BD00BF1A
:1010740010E000E080B582B000AF78607868FFF7D8
:101084002BFF00BF0837BD4680BD80B586B000AFDA
:101094000346B9607A60FB7300237B61FFF740FF6E
:1010A40078617A68B9687869FFF790FF024697F922
:1010B4000F3011461846FFF75FFF00BF1837BD46D3
:1010C40080BD80B582B000AF0346FB7197F907304D
:1010D4001846FFF733FF00BF0837BD4680BD80B513
:1010E40082B000AF78607868FFF7A2FF0346184625
:1010F4000837BD4680BD000080B489B000AF786079
:10110400396000237B6100233B610023BB61002322
:10111400FB6159E10122FB6902FA03F37B613B683D
:101124001A687B6913403B613A697B699A4240F0D3
:1011340048813B685B68012B0BD03B685B68022BE2
:1011440007D03B685B68112B03D03B685B68122BAC
:1011540030D17B689B68BB61FB695B00032202FAA8
:1011640003F3DB43BA691340BB613B68DA68FB698C
:101174005B0002FA03F3BA691343BB617B68BA6983
:101184009A607B685B68BB610122FB6902FA03F326
:10119400DB43BA691340BB613B685B681B0903F01E
:1011A4000102FB6902FA03F3BA691343BB617B686A
:1011B400BA695A607B68DB68BB61FB695B00032228
:1011C40002FA03F3DB43BA691340BB613B689A68D4
:1011D400FB695B0002FA03F3BA691343BB617B68E2
:1011E400BA69DA603B685B68022B03D03B685B68D2
:1011F400122B23D1FB69DA087B68083253F82230BA
:10120400BB61FB6903F007039B000F2202FA03F39F
:10121400DB43BA691340BB613B681A69FB6903F09D
:1012240007039B0002FA03F3BA691343BB61FB692A
:10123400DA087B680832B96943F822107B681B68B6
:10124400BB61FB695B00032202FA03F3DB43BA6967
:101254001340BB613B685B6803F00302FB695B00FE
:1012640002FA03F3BA691343BB617B68BA691A6073
:101274003B685B6803F08053002B00F0A2800023DE
:10128400FB60564A554B5B6C43F480435364534BA9
:101294005B6C03F48043FB60FB68514AFB699B0869
:1012A400023352F82330BB61FB6903F003039B0054
:1012B4000F2202FA03F3DB43BA691340BB617B6874
:1012C400484A934219D07B68474A934213D07B68BB
:1012D400464A93420DD07B68454A934207D07B68C7
:1012E400444A934201D1042308E0072306E0032380
:1012F40004E0022302E0012300E00023FA6902F083
:10130400030292009340BA691343BB613449FB69F9
:101314009B080233BA6941F82320374B1B68BB6131
:101324003B69DB43BA691340BB613B685B6803F408
:101334008033002B03D0BA693B691343BB612E4A47
:10134400BB6913602C4B5B68BB613B69DB43BA69C7
:101354001340BB613B685B6803F40033002B03D08C
:10136400BA693B691343BB61234ABB695360224B8F
:101374009B68BB613B69DB43BA691340BB613B6853
:101384005B6803F48013002B03D0BA693B691343F1
:10139400BB61194ABB699360174BDB68BB613B694E
:1013A400DB43BA691340BB613B685B6803F4001319
:1013B400002B03D0BA693B691343BB610E4ABB6976
:1013C400D360FB690133FB61FB690F2B7FF6A2AE8F
:1013D40000BF2437BD465DF8047B704700380240E7
:1013E40000380140000002400004024000080240AE
:1013F400000C024000100240003C014080B485B063
:1014040000AF78600B467B807B681A697B88134049
:10141400002B02D00123FB7301E00023FB73FB7B51
:1014240018461437BD465DF8047B704780B483B01A
:1014340000AF78600B467B8013467B707B78002B73
:1014440003D07A887B689A6103E07B881A047B68FE
:101454009A6100BF0C37BD465DF8047B704780B4C9
:1014640083B000AF78600B467B807B685A697B88C9
:101474001A407B889A4204D17B881A047B689A615B
:1014840002E07A887B689A6100BF0C37BD465DF83C
:10149400047B7047F0B58FB00AAF78607B68002B8F
:1014A40001D1012354E07B681B68FB607B6893F8DF
:1014B400B932DBB2002B06D17B68002283F8B82254
:1014C400786805F083FF7B68032283F8B922FB6800
:1014D400DB6B03F48073002B02D17B6800221A615A
:1014E4007B681B68184603F020F97B681B683B6027
:1014F4007E686D4606F110040FCC0FC50FCC0FC5E6
:1015040094E8030085E80300331D0ECB386803F02C
:101514009AF87B681B680121184603F017F97B6869
:101524001B683B607E686D4606F110040FCC0FC546
:101534000FCC0FC594E8030085E80300331D0ECBE0
:10154400386803F029FA7B68012283F8B922002362
:1015540018461437BD46F0BD90B589B004AF786025
:10156400084611461A460346FB700B46BB701346E9
:101574007B707B6893F8B832012B01D102237FE0A2
:101584007B68012283F8B822FA78796813469B00B5
:101594001344DB000B443D3300221A70FA78796857
:1015A40013469B001344DB000B4438337A781A70DB
:1015B400FA78796813469B001344DB000B444033EC
:1015C4003A8D1A80FA78796813469B001344DB003D
:1015D4000B443933FA781A70FA78796813469B0009
:1015E4001344DB000B443F3397F824201A70FA7835
:1015F400BB7803F07F03D8B2796813469B00134489
:10160400DB000B443A3302461A7097F90230002B80
:101614000ADAFA78796813469B001344DB000B441A
:101624003B3301221A7009E0FA78796813469B006B
:101634001344DB000B443B3300221A70FA787968B8
:1016440013469B001344DB000B443C3397F82020E3
:101654001A707B6818687C78BA78F9783B8D0293A5
:1016640097F82430019397F820300093234603F031
:101674001DFB0346FB737B68002283F8B822FB7BC7
:1016840018461437BD4690BD80B584B000AF78606D
:101694000B46FB700023FB737B6893F8B832012B75
:1016A40001D102230FE07B68012283F8B8227B6812
:1016B4001B68FA781146184603F065FD7B68002222
:1016C40083F8B822FB7B18461037BD4680BD000066
:1016D40080B582B000AF7860084611461A460346CA
:1016E400FB700B46BB7013467B70FA78796813461F
:1016F4009B001344DB000B443B33BA781A70FA782E
:10170400796813469B001344DB000B443F337A781B
:101714001A703B7C002B14D1FA78796813469B002D
:101724001344DB000B44423303221A70FA787968BD
:1017340013469B001344DB000B443D333A7F1A707D
:1017440009E0FA78796813469B001344DB000B44E4
:10175400423302221A707B78032B00F2D68001A256
:1017640052F823F079170008F9180008E517000863
:101774006F1800083B7C012B40F0C980BB78002B1C
:1017840040F0C5803B8B002B09D1FA787968134669
:101794009B001344DB000B44513301221A70FA7886
:1017A400796813469B001344DB000B4451331B78C8
:1017B400002B0AD1FA78796813469B001344DB00A6
:1017C4000B44423300221A70A1E0FA787968134678
:1017D4009B001344DB000B44423302221A7096E050
:1017E400BB78002B20D1FA78796813469B00134408
:1017F400DB000B4451331B78002B0AD1FA7879684B
:1018040013469B001344DB000B44423300221A703E
:101814007EE0FA78796813469B001344DB000B449E
:10182400423302221A7073E0FA78796813469B00F7
:101834001344DB000B4450331B78002B0AD1FA7895
:10184400796813469B001344DB000B4442330022A7
:101854001A705DE0FA78796813469B001344DB0044
:101864000B44423302221A7052E0BB78002B20D181
:10187400FA78796813469B001344DB000B44513318
:101884001B78002B0AD1FA78796813469B0013441D
:10189400DB000B44423300221A7039E0FA7879688D
:1018A40013469B001344DB000B44423302221A709C
:1018B4002EE0FA78796813469B001344DB000B444E
:1018C40050331B78002B0AD1FA78796813469B00B1
:1018D4001344DB000B44423300221A7018E0FA78F8
:1018E400796813469B001344DB000B444233022205
:1018F4001A700DE0FA78796813469B001344DB00F4
:101904000B44423300221A7002E000BF00E000BF23
:10191400FA78796813469B001344DB000B44443384
:101924007A691A60FA78398B786813469B001344F5
:10193400DB00034448331960FA78796813469B0046
:101944001344DB000B445C3300221A70FA78796884
:1019540013469B001344DB000B444C3300221A60F3
:10196400FA78796813469B001344DB000B4439333F
:10197400FA781A70FA78796813469B001344DB00EE
:101984000B445D3300221A707B681868FA7813469A
:101994009B001344DB0038337A68D1187B681B69D9
:1019A400DBB21A4603F094FA034618460837BD46DC
:1019B40080BD00BF80B586B000AF78607B681B68CF
:1019C4003B613B69FB607B681B68184602F0A1FF22
:1019D4000346012B40F0EF807B681B68184602F039
:1019E40085FF0346002B00F0E5807B681B681846E2
:1019F40002F07CFF034603F40013B3F5001F04D187
:101A04007B681B684FF400125A617B681B68184698
:101A140002F06CFF034603F48013B3F5801F04D176
:101A24007B681B684FF480125A617B681B681846F8
:101A340002F05CFF034603F08063B3F1806F04D1CE
:101A44007B681B684FF080625A617B681B6818468C
:101A540002F04CFF034603F00203022B03D17B6820
:101A64001B6802225A617B681B68184602F03EFF1D
:101A7400034603F00053B3F1005F15D17B681B6884
:101A84004FF000525A61FB6803F588631B6803F04A
:101A94000103002B08D1786805F016FD7B681B68EC
:101AA4000121184603F036F87B681B68184602F0DB
:101AB4001DFF034603F08073B3F1807F02D1786881
:101AC40001F07CF97B681B68184602F00FFF03469F
:101AD40003F00803082B06D1786805F0D9FC7B686D
:101AE4001B6808225A617B681B68184602F0FEFED8
:101AF400034603F00073B3F1007F38D17B681B68A1
:101B0400184603F02FFBB86000237B6125E07B6956
:101B140003F00F03BA6822FA03F303F00103002B66
:101B240018D07B695A01FB68134403F5A0631B6852
:101B340003F40043B3F5004F06D17B69DBB21946C9
:101B4400786800F0CFF805E07B69DBB21946786865
:101B540000F008FD7B6901337B617B689A687B69CF
:101B64009A42D4D87B681B684FF000725A617B6834
:101B74001B68184602F0BAFE034603F01003102B4C
:101B840001D1012300E00023002B14D07B681B68E3
:101B94007A681268926922F010029A61786801F0FA
:101BA40061F87B681B687A681268926942F01002D7
:101BB4009A6100E000BF1837BD4680BD80B582B091
:101BC40000AF78607B6893F8B832012B01D102230F
:101BD40013E07B68012283F8B8227B681B681846EF
:101BE40002F092FD7B681B680121184602F0FAFF9F
:101BF4007B68002283F8B822002318460837BD46C4
:101C040080BD80B582B000AF78607B6893F8B8324D
:101C1400012B01D102230DE07B68012283F8B82255
:101C24007B681B68184603F0F3FB7B68002283F88B
:101C3400B822002318460837BD4680BD80B582B05F
:101C440000AF78607B681B68184602F09FFF03466C
:101C540018460837BD4680BD80B483B000AF7860B5
:101C64000B46FB70FA78796813469B001344DB003B
:101C74000B445C331B7818460C37BD465DF8047B77
:101C8400704780B483B000AF78600B46FB70FA787D
:101C9400796813469B001344DB000B444C331B68E8
:101CA40018460C37BD465DF8047B704780B582B09A
:101CB40000AF78607B681B68184602F0E5FF0346B6
:101CC40018460837BD4680BD80B582B000AF786045
:101CD4007B681B68184602F0C0FF034618460837A5
:101CE400BD4680BD80B586B000AF78600B46FB7002
:101CF4007B681B687B617B693B61FB78FB60FB68ED
:101D04005A013B69134403F5A0639B6803F0040381
:101D1400042B1AD1FB685A013B69134403F5A063F1
:101D24001A4604239360FB685A013B69134403F584
:101D3400A0631946FB685A013B69134403F5A06389
:101D4400DB6843F00203CB60D1E0FB685A013B69D6
:101D5400134403F5A0639B6803F48073B3F5807F99
:101D64002DD1FB685A013B69134403F5A0631A465D
:101D74004FF4807393607968FA6813469B001344A8
:101D8400DB000B445D3307221A70FB685A013B6980
:101D9400134403F5A0631946FB685A013B691344D5
:101DA40003F5A063DB6843F00203CB607B681B6828
:101DB400FA68D2B21146184603F0E5F997E0FB68D9
:101DC4005A013B69134403F5A0639B6803F02003A5
:101DD400202B09D1FB685A013B69134403F5A06326
:101DE4001A462023936082E0FB685A013B6913443E
:101DF40003F5A0639B6803F00803082B35D1FB6847
:101E04005A013B69134403F5A0631946FB685A0160
:101E14003B69134403F5A063DB6843F00203CB6022
:101E24007968FA6813469B001344DB000B445D3366
:101E340005221A70FB685A013B69134403F5A06339
:101E44001A4610239360FB685A013B69134403F557
:101E5400A0631A46082393607B681B68FA68D2B2B1
:101E64001146184603F08FF941E0FB685A013B69BB
:101E7400134403F5A0639B6803F48063B3F5806F98
:101E840035D1FB685A013B69134403F5A063194635
:101E9400FB685A013B69134403F5A063DB6843F014
:101EA4000203CB607B681B68FA68D2B211461846FD
:101EB40003F069F9FB685A013B69134403F5A06315
:101EC4001A46102393607968FA6813469B001344FA
:101ED400DB000B445D3308221A70FB685A013B692E
:101EE400134403F5A0631A464FF480639360FB68C0
:101EF4005A013B69134403F5A0639B6803F4007320
:101F0400B3F5007F23D1FB685A013B69134403F501
:101F1400A0631946FB685A013B69134403F5A063A7
:101F2400DB6843F00203CB607B681B68FA68D2B2BB
:101F34001146184603F027F9FB685A013B6913441C
:101F440003F5A0631A464FF40073936006E3FB683D
:101F54005A013B69134403F5A0639B6803F0010332
:101F6400012B40F0FF807B681B69002B1BD0796834
:101F7400FA6813469B001344DB000B4448331A6889
:101F8400FB6859013B690B4403F5A0631B69C3F368
:101F94001203D11A7868FA6813469B001344DB00D5
:101FA40003444C3319607968FA6813469B00134460
:101FB400DB000B445D3301221A707968FA6813461A
:101FC4009B001344DB000B44583300221A60FB6867
:101FD4005A013B69134403F5A0631A460123936035
:101FE4007968FA6813469B001344DB000B443F33C3
:101FF4001B78002B0AD07968FA6813469B001344B7
:10200400DB000B443F331B78022B22D1FB685A01BF
:102014003B69134403F5A0631946FB685A013B6905
:10202400134403F5A063DB6843F00203CB607B68D1
:102034001B68FA68D2B21146184603F0A4F8FB688C
:102044005A013B69134403F5A0631A4610239360B5
:1020540071E07968FA6813469B001344DB000B4473
:102064003F331B78032B2BD1FB685A013B69134484
:1020740003F5A0631946FB685A013B69134403F551
:10208400A0631B6843F000530B607968FA68134639
:102094009B001344DB000B445C3301221A70FB6881
:1020A400D8B27968FA6813469B001344DB000B44EA
:1020B4005C331B781A460146786805F013FA3AE057
:1020C4007968FA6813469B001344DB000B443F33E2
:1020D4001B78012B2FD17968FA6813469B001344AF
:1020E400DB000B445C3301221A707968FA681346EA
:1020F4009B001344DB000B4450331B7883F0010333
:10210400D8B27968FA6813469B001344DB000B4489
:10211400503302461A70FB68D8B27968FA681346DD
:102124009B001344DB000B445C331B781A460146C6
:10213400786805F0D7F97968FA6813469B00134468
:10214400DB000B4450331B7883F00103D8B2796869
:10215400FA6813469B001344DB000B4450330246D9
:102164001A70FBE1FB685A013B69134403F5A06351
:102174009B6803F00203022B40F01B81FB685A01A9
:102184003B69134403F5A0631946FB685A013B6994
:10219400134403F5A063DB6823F00203CB60796882
:1021A400FA6813469B001344DB000B445D331B7831
:1021B400012B0AD17968FA6813469B001344DB00AB
:1021C4000B445C3301221A70D9E07968FA6813462B
:1021D4009B001344DB000B445D331B78052B0AD1B1
:1021E4007968FA6813469B001344DB000B445C33A4
:1021F40005221A70C3E07968FA6813469B001344F9
:10220400DB000B445D331B78062B0AD07968FA682F
:1022140013469B001344DB000B445D331B78082BEF
:1022240056D17968FA6813469B001344DB000B44CB
:1022340058331B68591C7868FA6813469B0013448A
:10224400DB000344583319607968FA6813469B002D
:102254001344DB000B4458331B68032B14D97968EF
:10226400FA6813469B001344DB000B4458330022E6
:102274001A607968FA6813469B001344DB000B4428
:102284005C3304221A7009E07968FA6813469B00EB
:102294001344DB000B445C3302221A70FB685A01BE
:1022A4003B69134403F5A0631B68BB60BB6823F060
:1022B4008043BB60BB6843F00043BB60FB685A01CA
:1022C4003B69134403F5A0631A46BB68136056E0E8
:1022D4007968FA6813469B001344DB000B445D33B2
:1022E4001B78032B23D17968FA6813469B001344A7
:1022F400DB000B445C3302221A70FB685A013B6911
:10230400134403F5A0631B68BB60BB6823F08043E0
:10231400BB60BB6843F00043BB60FB685A013B6988
:10232400134403F5A0631A46BB68136027E0796879
:10233400FA6813469B001344DB000B445D331B789F
:10234400072B1CD17968FA6813469B001344DB0001
:102354000B4458331B68591C7868FA6813469B0071
:102364001344DB000344583319607968FA68134650
:102374009B001344DB000B445C3304221A70FB689B
:102384005A013B69134403F5A0631A460223936080
:10239400FB68D8B27968FA6813469B001344DB00E3
:1023A4000B445C331B781A460146786805F09AF8AA
:1023B400D4E0FB685A013B69134403F5A0639B68AE
:1023C40003F08003802B3FD1FB685A013B6913441F
:1023D40003F5A0631946FB685A013B69134403F5EE
:1023E400A063DB6843F00203CB607968FA681346A4
:1023F4009B001344DB000B4458331B68591C78685A
:10240400FA6813469B001344DB00034458331960F5
:102414007968FA6813469B001344DB000B445D3370
:1024240006221A707B681B68FA68D2B211461846F5
:1024340002F0A9FEFB685A013B69134403F5A0634B
:102444001A468023936089E0FB685A013B69134470
:1024540003F5A0639B6803F01003102B7ED1796809
:10246400FA6813469B001344DB000B443F331B788C
:10247400032B23D17968FA6813469B001344DB00CD
:102484000B44583300221A60FB685A013B69134419
:1024940003F5A0631946FB685A013B69134403F52D
:1024A400A063DB6843F00203CB607B681B68FA68B7
:1024B400D2B21146184602F066FE46E07968FA6820
:1024C40013469B001344DB000B443F331B78002B63
:1024D4000AD07968FA6813469B001344DB000B4466
:1024E4003F331B78022B30D17968FA6813469B007E
:1024F4001344DB000B44583300221A607B681B69C9
:10250400002B22D17968FA6813469B001344DB0040
:102514000B445D3303221A70FB685A013B69134470
:1025240003F5A0631946FB685A013B69134403F59C
:10253400A063DB6843F00203CB607B681B68FA6826
:10254400D2B21146184602F01EFEFB685A013B69DE
:10255400134403F5A0631A461023936000BF183791
:10256400BD4680BD80B586B000AF78600B46FB7079
:102574007B681B687B617B693B61FB78FB60FB6864
:102584005A013B69134403F5A0639B6803F00403F9
:10259400042B1AD1FB685A013B69134403F5A06369
:1025A4001A4604239360FB685A013B69134403F5FC
:1025B400A0631946FB685A013B69134403F5A06301
:1025C400DB6843F00203CB6047E3FB685A013B69D5
:1025D400134403F5A0639B6803F02003202B42D12E
:1025E400FB685A013B69134403F5A0631A46202390
:1025F40093607968FA6813469B001344DB000B442C
:102604003D331B78012B40F028837968FA68134620
:102614009B001344DB000B443D3300221A7079689D
:10262400FA6813469B001344DB000B445C3302221C
:102634001A70FB685A013B69134403F5A0631946F9
:10264400FB685A013B69134403F5A063DB6843F05C
:102654000203CB607B681B68FA68D2B21146184645
:1026640002F091FDF9E2FB685A013B69134403F55A
:10267400A0639B6803F04003402B40D17968FA685B
:1026840013469B001344DB000B445D3304221A7091
:102694007968FA6813469B001344DB000B443D330E
:1026A40001221A707968FA6813469B001344DB0010
:1026B4000B44583300221A60FB685A013B691344E7
:1026C40003F5A0631946FB685A013B69134403F5FB
:1026D400A063DB6843F00203CB607B681B68FA6885
:1026E400D2B21146184602F04EFDFB685A013B690E
:1026F400134403F5A0631A4640239360ADE2FB68DC
:102704005A013B69134403F5A0639B6803F4007307
:10271400B3F5007F23D1FB685A013B69134403F5E9
:10272400A0631946FB685A013B69134403F5A0638F
:10273400DB6843F00203CB607B681B68FA68D2B2A3
:102744001146184602F01FFDFB685A013B69134409
:1027540003F5A0631A464FF4007393607DE2FB68AF
:102764005A013B69134403F5A0639B6803F001031A
:10277400012B36D17968FA6813469B001344DB00B9
:102784000B44583300221A60FB685A013B69134416
:1027940003F5A0631946FB685A013B69134403F52A
:1027A400A063DB6843F00203CB607B681B68FA68B4
:1027B400D2B21146184602F0E6FCFB685A013B69A6
:1027C400134403F5A0631A46012393607968FA68F9
:1027D40013469B001344DB000B445D3301221A7043
:1027E4003BE2FB685A013B69134403F5A0639B6811
:1027F40003F00803082B2CD1FB685A013B691344EE
:1028040003F5A0631A4608239360FB685A013B69E9
:10281400134403F5A0631946FB685A013B6913444A
:1028240003F5A063DB6843F00203CB607B681B689D
:10283400FA68D2B21146184602F0A5FC7968FA6823
:1028440013469B001344DB000B445D3305221A70CE
:1028540003E2FB685A013B69134403F5A0639B68D8
:1028640003F01003102B56D17968FA6813469B00C5
:102874001344DB000B44583300221A607968FA6869
:1028840013469B001344DB000B445D3303221A7090
:102894007968FA6813469B001344DB000B443D330C
:1028A4001B78002B14D17968FA6813469B001344F3
:1028B400DB000B443C331B78002B09D17968FA68A0
:1028C40013469B001344DB000B443D3301221A7072
:1028D400FB685A013B69134403F5A0631946FB687E
:1028E4005A013B69134403F5A063DB6843F0020318
:1028F400CB607B681B68FA68D2B21146184602F0B6
:1029040042FCFB685A013B69134403F5A0631A4671
:1029140010239360A1E1FB685A013B69134403F55A
:10292400A0639B6803F08003802B2CD1FB685A01C1
:102934003B69134403F5A0631946FB685A013B69DC
:10294400134403F5A063DB6843F00203CB607B68A8
:102954001B68FA68D2B21146184602F014FC796872
:10296400FA6813469B001344DB000B445D330622D4
:102974001A70FB685A013B69134403F5A0631A46B5
:102984008023936069E1FB685A013B69134403F5B2
:10299400A0639B6803F48063B3F5806F36D1FB6852
:1029A4005A013B69134403F5A0631946FB685A01B5
:1029B4003B69134403F5A063DB6843F00203CB6077
:1029C4007B681B68FA68D2B21146184602F0DBFB3A
:1029D400FB685A013B69134403F5A0631A461023AC
:1029E4009360FB685A013B69134403F5A0631A46DC
:1029F4004FF4806393607968FA6813469B0013442C
:102A0400DB000B445D3308221A7026E1FB685A018F
:102A14003B69134403F5A0639B6803F00203022B94
:102A240040F01B81FB685A013B69134403F5A06322
:102A34001946FB685A013B69134403F5A063DB683C
:102A440023F00203CB607968FA6813469B001344B1
:102A5400DB000B445D331B78012B37D17968FA68AE
:102A640013469B001344DB000B445C3301221A70B1
:102A74007968FA6813469B001344DB000B443F3328
:102A84001B78022B0BD07968FA6813469B00134419
:102A9400DB000B443F331B78032B40F0C58079687F
:102AA400FA6813469B001344DB000B4451331B7834
:102AB40083F00103D8B27968FA6813469B00134483
:102AC400DB000B44513302461A70ADE07968FA68B2
:102AD40013469B001344DB000B445D331B78032B2C
:102AE4000AD17968FA6813469B001344DB000B444F
:102AF4005C3302221A7097E07968FA6813469B00E7
:102B04001344DB000B445D331B78042B0AD1796832
:102B1400FA6813469B001344DB000B445C33022227
:102B24001A7081E07968FA6813469B001344DB004D
:102B34000B445D331B78052B0AD17968FA68134678
:102B44009B001344DB000B445C3305221A706BE0DA
:102B54007968FA6813469B001344DB000B445D3329
:102B64001B78062B0AD07968FA6813469B00134435
:102B7400DB000B445D331B78082B55D17968FA6868
:102B840013469B001344DB000B4458331B68591C49
:102B94007868FA6813469B001344DB0003445833F7
:102BA40019607968FA6813469B001344DB000B44F0
:102BB40058331B68032B14D97968FA6813469B00B1
:102BC4001344DB000B44583300221A607968FA6816
:102BD40013469B001344DB000B445C3304221A703D
:102BE40009E07968FA6813469B001344DB000B4440
:102BF4005C3302221A70FB685A013B69134403F5E3
:102C0400A0631B68BB60BB6823F08043BB60BB68E8
:102C140043F00043BB60FB685A013B69134403F56E
:102C2400A0631A46BB681360FB685A013B691344EE
:102C340003F5A0631A4602239360FB68D8B279684F
:102C4400FA6813469B001344DB000B445C331B7887
:102C54001A460146786804F045FC00BF1837BD46A3
:102C640080BD000080B58AB000AF78607B681B68C7
:102C74007B627B6A3B627B681B681B6AFB61FB6946
:102C840003F00F03BB61FB695B0C03F00F037B6173
:102C9400FB691B09C3F30A033B617B69022B03D065
:102CA400052B00F0828083E03B69002B7FD079689C
:102CB400BA6913469B001344DB000B4444331B687E
:102CC400002B74D07B6818687968BA6913469B0036
:102CD4001344DB000B4444331B683A6992B219462F
:102CE40001F0DBFD7968BA6913469B001344DB00ED
:102CF4000B4444331A683B69D1187868BA6913469F
:102D04009B001344DB000344443319607968BA69B7
:102D140013469B001344DB000B444C331A683B6995
:102D2400D1187868BA6913469B001344DB00034446
:102D34004C331960BB695A013B6A134403F5A06321
:102D44001A691D4B1340002B31D0BB695A013B6AF1
:102D5400134403F5A0631B68FB60FB6823F0804306
:102D6400FB60FB6843F00043FB60BB695A013B6AAC
:102D7400134403F5A0631A46FB6813607968BA69C3
:102D840013469B001344DB000B4450331B7883F041
:102D94000103D8B27968BA6913469B001344DB0077
:102DA4000B44503302461A7001E000BF00E000BF3C
:102DB40000BF2837BD4680BD0000F81F80B586B02F
:102DC40000AF78607B681B687B617B693B613B6912
:102DD40003F588631B68FB603B6903F588631B6824
:102DE400BB60BB6823F02E03BB60FB6803F00203E7
:102DF400022B0BD1FB6803F00103012B02D178688D
:102E040004F054FBBB6843F00203BB60FB6803F0AF
:102E14000803082B32D1BB6843F00803BB60FB688E
:102E240003F00403042B26D17B689B69022B13D186
:102E3400FB6803F4C023B3F5802F06D17B681B68BD
:102E44000221184601F066FE11E07B681B6801212F
:102E5400184601F05FFE0AE07B68DB68012B06D1AF
:102E64003B6903F580631A464EF660235360786825
:102E740004F046FB02E0786804F050FBFB6803F0C2
:102E84002003202B03D1BB6843F02003BB603B69C4
:102E940003F588631A46BB68136000BF1837BD4644
:102EA40080BD000090B585B000AF78607B68002BD2
:102EB40001D101231FE17B6893F83D30DBB2002B85
:102EC40006D17B68002283F83C207868FDF7A8FDD2
:102ED4007B68242283F83D207B681B687A6812682B
:102EE400126822F001021A607B681B687A68126813
:102EF400126842F400421A607B681B687A681268A0
:102F0400126822F400421A6001F0DCF9F8607B6870
:102F14005B687B4A934207D8FB687A4A934294BF22
:102F240001230023DBB206E0FB68774A934294BF97
:102F340001230023DBB2002B01D00123DBE0FB687B
:102F4400724AA2FB03239B0CBB607B681B687A68F4
:102F54001268526822F03F01BA680A435A607B68DB
:102F64001A687B681B681B6A23F03F017B685B68F7
:102F74006348834202D8BB68013309E0BB684FF45D
:102F8400967000FB03F36248A0FB03039B09013323
:102F94000B4313627B6818687B681B68DB6923F446
:102FA4004F4222F0FF027B685B6855498B420DD883
:102FB400FB68591E7B685B685B00B1FBF3F301336C
:102FC400C3F30B03042B38BF04234FE07B689B68D7
:102FD400002B11D1FB685C1E7B6859680B465B00B3
:102FE4000B44B4FBF3F30133C3F30B03002B0CBF0B
:102FF40001230023DBB212E0FB685C1E7B68596886
:103004000B469B000B4499000B44B4FBF3F30133D0
:10301400C3F30B03002B0CBF01230023DBB2002BF3
:1030240001D0012322E07B689B68002B0ED1FB6852
:103034005C1E7B6859680B465B000B44B4FBF3F3DE
:103044000133C3F30B0343F400430FE0FB685C1E3E
:103054007B6859680B469B000B4499000B44B4FBF6
:10306400F3F30133C3F30B0343F440431343C3614A
:103074007B681B687A681268126822F0C0017A685B
:10308400D0697A68126A02430A431A607B681A6834
:103094007B681B689B6823F4034323F0FF03796870
:1030A40008697968C96801430B4393607B681B68AE
:1030B4007A681268D26822F0FF017A6850697A68E7
:1030C400926902430A43DA607B681B687A68126873
:1030D400126842F001021A607B6800221A647B685D
:1030E400202283F83D207B6800221A637B6800223B
:1030F40083F83E20002318461437BD4690BD00BF18
:10310400A08601007F841E00FF083D0083DE1B4370
:10311400D34D621080B588B000AF78607B68002B17
:1031240001D1012327E17B6893F84130DBB2002B06
:1031340009D17B68002283F840207B68904A5A6357
:103144007868FDF7B5FC7B68022283F841207B6830
:103154001A687B681B68DB6923F47B6323F00F0325
:10316400D3617B681B6802221A627B685B69022B4D
:1031740060D07B68DB68002B02D110237B6101E007
:1031840020237B617B689B68202B02D87B695B00D2
:103194007B61012001F098F9F8607B681B69B3F545
:1031A400007F25D17B68DB68002B10D07B699B00F6
:1031B400FA68B2FBF3F213469B0013445B001A4611
:1031C4007B685B69B2FBF3F305333B611FE07B690A
:1031D400DB00FA68B2FBF3F213469B0013445B0076
:1031E4001A467B685B69B2FBF3F305333B610EE07F
:1031F400FA687B69B2FBF3F213469B0013445B004D
:103204001A467B685B69B2FBF3F305333B613B69A8
:103214005C4AA2FB0323DB083B613B6903F0010327
:10322400BB613A69BB69D31A5B08FB61BB691B02CA
:10323400BB6103E00223FB610023BB61FB69012B3B
:1032440002D9FB69FF2B07D97B685B6C43F0100242
:103254007B685A6401238EE07B681B687A68116975
:10326400BA691143FA690A431A627B681A687B686F
:103274001B68DB6923F47B6323F00F0379684868D8
:103284007968896808437968C968084379688969ED
:1032940001430B4343F40063D3617B681B6A012B36
:1032A40061D17B68384A5A637B681B68374A93420A
:1032B40001D1374A01E04FF040227B681B68334953
:1032C4008B4201D1324B01E04FF04023DB6923F400
:1032D4007B6323F00F03D3617B681B682B4A934203
:1032E40001D12B4B01E04FF0402302221A627B688C
:1032F4001B68264A934201D1254B01E04FF040233D
:10330400DB697B817B685B68B3F5007F03D07B68F6
:103314005B68002B03D14FF480733B6101E0002311
:103324003B613B699AB27B689B6899B27B68DB68B6
:1033340098B27B689B699BB203439BB20B439BB2DD
:1033440013439AB27B8913439BB243F400637B819A
:103354007B681B680D4A934201D10D4B01E04FF08D
:1033640040237A89DA617B6800225A647B680122EF
:1033740083F84120002318462037BD4680BD00BF96
:103384008F340008CDCCCCCCA535000800380040E3
:103394000034004080B483B000AF786000BF0C37C5
:1033A400BD465DF8047B704780B483B000AF78609D
:1033B40000BF0C37BD465DF8047B704780B483B012
:1033C40000AF786000BF0C37BD465DF8047B7047E2
:1033D40080B582B000AF78607B681B687A68526AF7
:1033E4001288DA607B685B6A9A1C7B685A627B6825
:1033F4005B8D9BB2013B9AB27B685A857B685B8D7F
:103404009BB2002B0ED17B681B687A6812685268E5
:1034140022F0A0025A607B68012283F84120786878
:10342400FFF7B8FF00BF0837BD4680BD80B582B046
:1034340000AF78607B68DB6A7A681268D26892B2FF
:103444001A807B68DB6A9A1C7B68DA627B685B8E15
:103454009BB2013B9AB27B685A867B685B8E9BB2B7
:10346400002B0ED17B681B687A681268526822F0C0
:1034740060025A607B68012283F841207868FFF774
:1034840093FF00BF0837BD4680BD80B586B000AF4E
:1034940078607B681B689B687B617B6893F841302C
:1034A400DBB2042B3AD17B6903F00103012B09D170
:1034B4007B681B685B6803F04003402B02D178688B
:1034C400FFF7B4FF7B6903F04003402B26D17B68F0
:1034D4001B685B6803F02003202B1FD17B681B68EB
:1034E4007A681268526822F060025A6000233B61D5
:1034F4007B681B68DB683B617B681B689B683B617E
:103504003B697B68012283F841207B685B6C43F054
:1035140002027B685A647868FFF750FF7B6893F86F
:103524004130DBB2032B36D17B6903F00203022B5B
:1035340009D17B681B685B6803F08003802B02D190
:103544007868FFF745FF7B6903F00803082B22D155
:103554007B681B685B6803F02003202B1BD17B680E
:103564001B687A681268526822F0A0025A6000232D
:10357400FB607B681B689B68FB60FB687B680122BF
:1035840083F841207B685B6C43F004027B685A64D7
:103594007868FFF713FF00BF1837BD4680BD0000F1
:1035A40080B588B000AF78607B681B689B68FB615E
:1035B4007B681B68A24A934201D1A24B01E04FF001
:1035C40040239B68BB617B681B685B687B617B688D
:1035D4001B689B4A934201D19A4B01E04FF0402370
:1035E4005B683B617B685B68B3F5007F04D07B68F4
:1035F4005B68002B40F09980FB6903F00203022B07
:1036040007D17B6903F08003002B02D0786800F0B7
:1036140025F9BB6903F00103012B07D13B6903F0D2
:103624004003002B02D0786800F0C6F9BB6903F0B0
:103634004003402B3AD13B6903F02003002B35D0E3
:103644007B681B687E4A934201D17E4B01E04FF0B8
:1036540040237A6812687A498A4201D1794A01E0A2
:103664004FF04022526822F060025A607B681B6867
:103674007A681268526822F0A0025A600023FB6044
:103684007B681B68DB68FB607B681B689B68FB606E
:10369400FB687B68012283F841207B685B6C43F004
:1036A40002027B685A647868FFF788FEFB6903F0BE
:1036B4000803082B40F0BE807B6903F02003002B35
:1036C40000F0B8807B681B687A681268526822F040
:1036D400A0025A607B681B68594A934201D1594B36
:1036E40001E04FF040237A68126855498A4201D1BB
:1036F400544A01E04FF04022526822F060025A60BE
:103704000023BB607B681B689B68BB60BB687B68ED
:10371400012283F841207B685B6C43F004027B68E0
:103724005A647868FFF74AFE84E0BB6903F0020339
:10373400022B07D13B6903F08003002B02D0786889
:1037440000F0BEF8FB6903F00103012B07D17B698C
:1037540003F04003002B02D0786800F0FBF8FB690B
:1037640003F04003402B2FD17B6903F02003002B8F
:103774002AD07B681B687A681268526822F060025B
:103784005A607B681B682E4A934201D12D4B01E09D
:103794004FF040237A68126829498A4201D1294AA4
:1037A40001E04FF04022526822F0A0025A607B6888
:1037B400012283F841207B685B6C43F002027B6842
:1037C4005A647868FFF7FAFDBB6903F00803082B15
:1037D40031D13B6903F02003002B2CD07B681B689C
:1037E400174A934201D1174B01E04FF040237A6806
:1037F400126813498A4201D1124A01E04FF0402273
:10380400526822F0A0025A607B681B687A681268CA
:10381400526822F060025A607B68012283F84120DA
:103824007B685B6C43F004027B685A647868FFF73A
:10383400C5FD00E000BF00BF2037BD4680BD00BF0E
:10384400003800400034004080B483B000AF78609A
:1038540000BF0C37BD465DF8047B704780B582B06D
:1038640000AF78607B681A687B685B6A981C79682B
:1038740048621B88D3607B685B8D9BB2013B9AB224
:103884007B685A857B685B8D9BB2002B13D17B6868
:103894001B687A681268526822F0A0025A607B683A
:1038A4005B8E9BB2002B06D17B68012283F84120FA
:1038B4007868FFF7C9FF00BF0837BD4680BD000028
:1038C40080B582B000AF78607B681B681F4A934262
:1038D40001D11F4A01E04FF040227B685B6A981CCB
:1038E400796848621B88D3607B685B8D9BB2013B1F
:1038F4009AB27B685A857B685B8D9BB2002B21D181
:103904007B681B68114A934201D1114B01E04FF0CF
:1039140040237A6812680D498A4201D10C4A01E0B9
:103924004FF04022526822F0A0025A607B685B8EFE
:103934009BB2002B06D17B68012283F84120786872
:10394400FFF782FF00BF0837BD4680BD0038004046
:103954000034004080B582B000AF78607B68DB6AD9
:10396400991C7A68D1627A681268D26892B21A8015
:103974007B685B8E9BB2013B9AB27B685A867B68FC
:103984005B8E9BB2002B13D17B681B687A6812682C
:10399400526822F060025A607B685B8D9BB2002BF8
:1039A40006D17B68012283F841207868FFF74CFF39
:1039B40000BF0837BD4680BD80B582B000AF7860D7
:1039C4007B68DB6A991C7A68D1627A6812681E493E
:1039D4008A4201D11D4A01E04FF04022D26892B2DE
:1039E4001A807B685B8E9BB2013B9AB27B685A86D5
:1039F4007B685B8E9BB2002B21D17B681B68124ACB
:103A0400934201D1114B01E04FF040237A681268D0
:103A14000D498A4201D10D4A01E04FF0402252681B
:103A240022F060025A607B685B8D9BB2002B06D14A
:103A34007B68012283F841207868FFF705FF00BF07
:103A44000837BD4680BD00BF003800400034004048
:103A540080B586B000AF78607B68002B01D101236C
:103A64005BE27B681B6803F00103002B75D0A34B5A
:103A74009B6803F00C03042B0CD0A04B9B6803F051
:103A84000C03082B12D19D4B5B6803F48003B3F540
:103A9400800F0BD1994B1B6803F40033002B5BD0D0
:103AA4007B685B68002B57D1012336E27B685B6837
:103AB400B3F5803F06D1914A904B1B6843F48033A1
:103AC40013601DE07B685B68B3F5A02F0CD18B4AB3
:103AD4008A4B1B6843F480231360884A874B1B6816
:103AE40043F4803313600BE0844A844B1B6823F453
:103AF40080331360814A814B1B6823F48023136055
:103B04007B685B68002B13D0FDF7B8F9386108E0D7
:103B1400FDF7B4F902463B69D31A642B01D9032398
:103B2400FBE1764B1B6803F40033002BF0D014E068
:103B3400FDF7A4F9386108E0FDF7A0F902463B69F6
:103B4400D31A642B01D90323E7E16C4B1B6803F4FC
:103B54000033002BF0D100E000BF7B681B6803F04A
:103B64000203002B63D0654B9B6803F00C03002B0E
:103B74000BD0624B9B6803F00C03082B1CD15F4BEA
:103B84005B6803F48003002B16D15C4B1B6803F0C5
:103B94000203002B05D07B68DB68012B01D00123D5
:103BA400BBE15649554B1B6823F0F8027B681B693F
:103BB400DB0013430B603AE07B68DB68002B20D00A
:103BC4004F4B01221A60FDF759F9386108E0FDF7FF
:103BD40055F902463B69D31A022B01D903239CE110
:103BE400464B1B6803F00203002BF0D04349434BC0
:103BF4001B6823F0F8027B681B69DB0013430B602E
:103C040015E03F4B00221A60FDF738F9386108E0EF
:103C1400FDF734F902463B69D31A022B01D9032379
:103C24007BE1364B1B6803F00203002BF0D17B6869
:103C34001B6803F00803002B30D07B685B69002B02
:103C440016D0304B01221A60FDF718F9386108E0EC
:103C5400FDF714F902463B69D31A022B01D9032359
:103C64005BE1264B5B6F03F00203002BF0D015E001
:103C7400244B00221A60FDF701F9386108E0FDF7D2
:103C8400FDF802463B69D31A022B01D9032344E110
:103C94001A4B5B6F03F00203002BF0D17B681B68A7
:103CA40003F00403002B00F0A0800023FB75134BEA
:103CB4001B6C03F08053002B0FD10023BB600F4A11
:103CC4000E4B1B6C43F0805313640C4B1B6C03F0C2
:103CD4008053BB60BB680123FB750B4B1B6803F46B
:103CE4008073002B21D1084A074B1B6843F480736F
:103CF4001360FDF7C3F8386111E000BF00380240DB
:103D040000004742800E474200700040FDF7B6F8BD
:103D140002463B69D31A022B01D90323FDE0814BF0
:103D24001B6803F48073002BF0D07B689B68012B25
:103D340006D17D4A7C4B1B6F43F0010313671CE0E3
:103D44007B689B68052B0CD1774A774B1B6F43F03C
:103D540004031367744A744B1B6F43F00103136726
:103D64000BE0714A704B1B6F23F0010313676E4A1B
:103D74006D4B1B6F23F0040313677B689B68002B58
:103D840015D0FDF77BF838610AE0FDF777F80246B5
:103D94003B69D31A41F28832934201D90323BCE030
:103DA400614B1B6F03F00203002BEED014E0FDF710
:103DB40065F838610AE0FDF761F802463B69D31AF9
:103DC40041F28832934201D90323A6E0564B1B6F7C
:103DD40003F00203002BEED1FB7D012B05D1524AE7
:103DE400514B1B6C23F0805313647B689B69002B3D
:103DF40000F092804C4B9B6803F00C03082B5CD0C2
:103E04007B689B69022B41D1484B00221A60FDF765
:103E140035F8386108E0FDF731F802463B69D31AFA
:103E2400022B01D9032378E03F4B1B6803F0007396
:103E3400002BF0D13C497B68DA697B681B6A1A4322
:103E44007B685B6A9B011A437B689B6A5B08013B46
:103E54001B041A437B68DB6A1B0613434B60334B1A
:103E640001221A60FDF70AF8386108E0FDF706F848
:103E740002463B69D31A022B01D903234DE02A4B96
:103E84001B6803F00073002BF0D045E0274B0022A1
:103E94001A60FCF7F3FF386108E0FCF7EFFF024615
:103EA4003B69D31A022B01D9032336E01E4B1B684E
:103EB40003F00073002BF0D12EE07B689B69012B8B
:103EC40001D1012329E0184B5B68FB60FB6803F414
:103ED40080027B68DB699A421CD1FB6803F03F02D5
:103EE4007B681B6A9A4215D1FA6847F6C07313407F
:103EF4007A68526A93420DD1FB6803F440327B68BE
:103F04009B6A9A4206D1FB6803F070627B68DB6AA5
:103F14009A4201D0012300E0002318461837BD4619
:103F240080BD00BF0070004000380240600047427E
:103F340080B584B000AF786039607B68002B01D114
:103F44000123CCE0684B1B6803F00F023B689A42E4
:103F54000CD2654B3A68D2B21A70634B1B6803F0FB
:103F64000F023B689A4201D00123B8E07B681B68CA
:103F740003F00203002B20D07B681B6803F00403CA
:103F8400002B05D0594A594B9B6843F4E053936086
:103F94007B681B6803F00803002B05D0534A534B7E
:103FA4009B6843F4604393605049504B9B6823F0F3
:103FB400F0027B689B6813438B607B681B6803F08B
:103FC4000103002B44D07B685B68012B07D1474B6E
:103FD4001B6803F40033002B19D101237FE07B68B5
:103FE4005B68022B03D07B685B68032B07D13F4BD4
:103FF4001B6803F00073002B09D101236FE03B4BD6
:104004001B6803F00203002B01D1012367E0374949
:10401400364B9B6823F003027B685B6813438B6019
:10402400FCF72CFFF8600AE0FCF728FF0246FB6867
:10403400D31A41F28832934201D903234FE02B4B28
:104044009B6803F00C027B685B689B009A42EBD18F
:10405400254B1B6803F00F023B689A420CD9224B94
:104064003A68D2B21A70204B1B6803F00F023B6807
:104074009A4201D0012332E07B681B6803F00403F9
:10408400002B08D01949194B9B6823F4E0527B6834
:10409400DB6813438B607B681B6803F00803002B09
:1040A40009D01249114B9B6823F460427B681B6959
:1040B400DB0013438B6000F021F801460B4B9B6837
:1040C4001B0903F00F030A4AD35C21FA03F3094ADC
:1040D4001360094B1B681846FCF78CFE0023184636
:1040E4001037BD4680BD00BF003C0240003802408E
:1040F400947B000800000020040000202DE9F04F0C
:104104008FB000AF0023FB6200237B630023BB62FC
:1041140000233B63624B9B6803F00C03042B07D022
:10412400082B08D0002B40F0B2805E4B3B63B1E01B
:104134005D4B3B63AEE05A4B5B6803F03F03FB62AD
:10414400574B5B6803F48003002B4ED0544B5B68E1
:104154009B094FF0000440F2FF114FF0000201EA06
:10416400030102EA04020B46144660017862786A8D
:1041740040EAD36078625B013B62D7E908345B1A9A
:1041840064EB02044FEA841949EA93694FEA8318FD
:10419400B8EB030869EB04094FEAC903FB61FB6947
:1041A40043EA5873FB614FEAC803BB61D7E9068948
:1041B40018EB010849EB02094FEA49237B617B694B
:1041C40043EAD8537B614FEA48233B61D7E904892A
:1041D40040464946FB6A4FF000041A462346FBF763
:1041E400F7FF03460C467B6343E02D4B5B689B095A
:1041F4004FF0000440F2FF114FF0000201EA030106
:1042040002EA04020B4614466001F860F86840EACA
:10421400D360F8605B01BB60D7E902345B1A64EBDE
:104224000204A60146EA93669D01ED1A66EB0406B4
:10423400F3007B607B6843EA55737B60EB003B6073
:1042440097E860006D1846EB02064FEA862B4BEAAE
:10425400955B4FEA852A55465E4628463146FB6AF9
:104264004FF000041A462346FBF7B2FF03460C4600
:104274007B630B4B5B681B0C03F0030301335B0094
:10428400BB627A6BBB6AB2FBF3F33B6302E0054BA0
:104294003B6300BF3B6B18463C37BD46BDE8F08F1F
:1042A400003802400024F40000127A0080B400AF09
:1042B400034B1B681846BD465DF8047B704700BF7E
:1042C4000000002080B500AFFFF7F0FF0146054B6A
:1042D4009B689B0A03F00703034AD35C21FA03F3A8
:1042E400184680BD00380240A47B000880B586B023
:1042F40000AF786000237B6100233B617B681B680F
:1043040003F00103002B05D17B681B6803F0040351
:10431400002B35D0674B00221A60FCF7AFFD7861A3
:1043240008E0FCF7ABFD02467B69D31A022B01D9E6
:104334000323BAE0604B1B6803F00063002BF0D149
:104344005D497B685B689A017B689B681B07134324
:10435400C1F88430574B01221A60FCF78FFD786155
:1043640008E0FCF78BFD02467B69D31A022B01D9C6
:1043740003239AE0504B1B6803F00063002BF0D03A
:104384007B681B6803F00203002B00F0838000238A
:10439400FB60494A484B1B6C43F080531364464B03
:1043A4001B6C03F08053FB60FB68444A434B1B685F
:1043B40043F480731360FCF761FD786108E0FCF757
:1043C4005DFD02467B69D31A022B01D903236CE0FD
:1043D4003A4B1B6803F48073002BF0D0364B1B6FF1
:1043E40003F440733B613B69002B2FD07B68DB688F
:1043F40003F440723B699A4228D02F4B1B6F23F47D
:1044040040733B612E4B01221A602D4B00221A602F
:10441400294A3B691367284B1B6F03F00103012BE7
:1044240014D1FCF72BFD78610AE0FCF727FD024666
:104434007B69D31A41F28832934201D9032334E0D1
:104444001D4B1B6F03F00203002BEED07B68DB686F
:1044540003F44073B3F5407F0DD11749164B9B68A5
:1044640023F4F8127B68DB6823F0704323F4407371
:1044740013438B6005E0104A0F4B9B6823F4F81339
:1044840093600D490C4B1A6F7B68DB68C3F30B0315
:1044940013430B677B681B6803F00803002B03D0EE
:1044A400084A7B681B7C1360002318461837BD46F6
:1044B40080BD00BF680047420038024000700040E1
:1044C400400E4742E011474280B487B000AF7860A5
:1044D40000237B6100233B610023FB600023BB605E
:1044E4007B68012B3DD1224B9B6803F40003FB60E6
:1044F400FB68002B04D0012B2FD11E4B7B612FE0D6
:104504001B4B5B6803F48003B3F5800F08D1184B91
:104514005B6803F03F03184AB2FBF3F33B6107E027
:10452400134B5B6803F03F03144AB2FBF3F33B61A4
:104534000F4BD3F884309B09C3F308033A6902FB99
:1045440003F3BB600A4BD3F884301B0F03F007035B
:10455400BA68B2FBF3F37B6102E000237B6100BF26
:1045640000BF7B6918461C37BD465DF8047B704765
:10457400003802400080BB0000127A000024F400DE
:1045840080B582B000AF78607B68002B01D1012335
:1045940055E07B6800229A627B6893F85130DBB265
:1045A400002B06D17B68002283F850207868FCF742
:1045B4003DFB7B68022283F851207B681B687A6884
:1045C4001268126822F040021A607B681B687A68DD
:1045D40051687A68926811437A68D26811437A689C
:1045E400126911437A68526911437A68926902F434
:1045F400007211437A68D26911437A68126A1143CE
:104604007A68926A0A431A607B681B687A689269BE
:10461400120C02F004017A68526A0A435A607B68F9
:104624001B687A681268D26922F40062DA617B68D6
:1046340000225A657B68012283F851200023184622
:104644000837BD4680BD84B080B584B000AF7860C3
:1046540007F11C0080E80E003B6B012B22D17B6824
:104664009B6B23F480327B689A637B68DB6823F45A
:10467400840323F040037A68D3607B68DB6823F407
:1046840040127B68DA60FB6C012B05D17B68DB6828
:1046940043F480127B68DA60786800F049F90346D5
:1046A400FB731AE07B68DB6843F040027B68DA60E6
:1046B400786800F03DF90346FB733B6C002B06D190
:1046C4007B689B6B43F480327B689A6305E07B686C
:1046D4009B6B23F480327B689A63BB6A012B0BD1FA
:1046E4007B689B6843F006027B689A607B689B68E2
:1046F40043F020027B689A60FB7B18461037BD4666
:10470400BDE8804004B0704780B483B000AF7860E7
:104714007B689B6843F001027B689A60002318461B
:104724000C37BD465DF8047B704780B483B000AF9E
:1047340078607B689B6823F001027B689A600023A1
:1047440018460C37BD465DF8047B704780B582B0CF
:1047540000AF78600B46FB707B68DB6823F0C042D7
:104764007B68DA60FB78012B06D17B68DB6843F059
:1047740000527B68DA600BE0FB78002B06D17B6883
:10478400DB6843F080427B68DA6001E0012303E0E8
:104794003220FCF77FFB002318460837BD4680BD56
:1047A40080B485B000AF786039600023FB603B685B
:1047B4009B0143F020027B681A61FB680133FB60B4
:1047C400FB68094A934201D9032306E07B681B690D
:1047D40003F02003202BF0D0002318461437BD46E5
:1047E4005DF8047B704700BF400D030080B485B0C2
:1047F40000AF78600023FB607B6810221A61FB68BD
:104804000133FB60FB68094A934201D9032306E0A4
:104814007B681B6903F01003102BF0D000231846AB
:104824001437BD465DF8047B704700BF400D03009C
:1048340080B489B000AFF860B96011461A460B46DF
:10484400FB711346BB80FB687B61BB68FB6197F817
:104854002830002B1AD1BB8803339B083B6100230B
:10486400BB610FE0FB791A037B69134403F58053A2
:104874001A46FB691B681360FB690433FB61BB695F
:104884000133BB61BA693B699A42EBD300231846F2
:104894002437BD465DF8047B704780B489B000AF0F
:1048A400F860B9601346FB80FB687B61BB68FB6101
:1048B400FB8803339B083B610023BB610BE07B69EE
:1048C40003F580531A68FB691A60FB690433FB61C2
:1048D400BB690133BB61BA693B699A42EFD3FB6997
:1048E40018462437BD465DF8047B704780B485B014
:1048F40000AF78607B685B69FB607B689B69FA68E2
:104904001340FB60FB6818461437BD465DF8047B12
:10491400704780B483B000AF78607B685B6903F054
:10492400010318460C37BD465DF8047B7047000050
:1049340080B485B000AF78600023FB60FB6801336E
:10494400FB60FB68134A934201D903231BE07B6895
:104954001B69002BF2DA0023FB607B681B6943F0C0
:1049640001027B681A61FB680133FB60FB68094A3A
:10497400934201D9032306E07B681B6903F001031A
:10498400012BF0D0002318461437BD465DF8047B94
:10499400704700BF400D030084B080B584B000AF01
:1049A400786007F11C0080E80E007B68BB60BB6880
:1049B40003F560631A46002313607B689B6B43F422
:1049C40000127B689A637B689B6B23F400227B68EC
:1049D4009A637B689B6B23F480227B689A637B6871
:1049E400DB6B03F48073002B1AD07B6A012B0BD191
:1049F400BB6803F580631A46BB6803F580631B68D4
:104A040043F00403136016E0BB6803F580631A46A1
:104A1400BB6803F580631B6823F0040313600AE09A
:104A2400BB6803F580631A46BB6803F580631B68A3
:104A340023F00403136010217868FFF7B1FE78684F
:104A4400FFF7D4FE0023FB6015E0FB685A01BB6846
:104A5400134403F5A0631A464FF0FF339360FB68D9
:104A64005A01BB68134403F5A0631A460023D360BC
:104A7400FB680133FB603A6AFB689A42E5D801217E
:104A8400786800F0AFF8C820FCF704FA7B680022CD
:104A94009A617B684FF0FF325A617B68DB6B03F4E9
:104AA4008073002B0BD07B684FF400725A627B68D2
:104AB400134A9A627B68134AC3F8002109E07B68B1
:104AC40080225A627B68104A9A627B680F4AC3F854
:104AD4000021BB6A002B05D17B689B6943F010025F
:104AE4007B689A617B689A69094B13437A6893617E
:104AF400002318461037BD46BDE8804004B0704717
:104B0400000200010003E00080006000E0004000BB
:104B1400080020A380B485B000AF78600B46FB701A
:104B24007B68FB60FB6803F580631A46FB6803F54A
:104B340080631B6823F003031360FB6803F5806341
:104B44001946FB6803F580631A68FB7803F00303D6
:104B540013430B60FB78012B07D1FB6803F58063DB
:104B64001A464BF68033536009E0FB78022B06D1DA
:104B7400FB6803F580631A4641F2707353600023A7
:104B840018461437BD465DF8047B704780B584B081
:104B940000AF78607B68FB600023BB60FB6803F5B3
:104BA40088631B68BB60BB6823F02E03BB60FB6893
:104BB40003F588631A46BB6843F48073136064206A
:104BC400FCF768F9FB6803F588631A46BB6823F4AD
:104BD400807313600A20FCF75DF900231846103730
:104BE400BD4680BD80B485B000AF78600B46FB70D5
:104BF4007B68FB600023BB60FB6803F588631B686C
:104C0400BB60BB6823F02E03BB60BB6803F4805316
:104C1400002B0AD1FB78012B07D1FB6803F58863CD
:104C24001A46BB6843F480531360BB6803F4805393
:104C3400B3F5805F0AD1FB78002B07D1FB6803F53D
:104C440088631A46BB6823F4805313600023184614
:104C54001437BD465DF8047B704780B485B000AF5F
:104C640078607B68FB600023BB60FB6803F58863A6
:104C74001B68BB60BB685B0C03F003031846143766
:104C8400BD465DF8047B704780B485B000AF7860A2
:104C94007B68FB60FB6803F580639B689BB21846E6
:104CA4001437BD465DF8047B7047000080B487B0BC
:104CB40000AF7860084611461A460346FB700B465F
:104CC400BB7013467B700023FB757B68BB60FB786D
:104CD4005A01BB68134403F5A0631A464FF0FF332F
:104CE400936097F82430032B00F2848001A252F8D9
:104CF40023F000BF094D0008B94D0008094D000814
:104D0400794D0008FB785A01BB68134403F5A0638E
:104D14001A4640F29D43D36097F90230002B11DA12
:104D2400FB785A01BB68134403F5A0631946FB786A
:104D34005A01BB68134403F5A063DB6843F4807332
:104D4400CB605AE07B68DB6B03F48073002B54D098
:104D5400FB785A01BB68134403F5A0631946FB783A
:104D64005A01BB68134403F5A063DB6843F0600396
:104D7400CB6042E0FB785A01BB68134403F5A0639F
:104D84001A4640F29D63D36097F90230002B36DA5D
:104D9400FB785A01BB68134403F5A0631946FB78FA
:104DA4005A01BB68134403F5A063DB6843F48073C2
:104DB400CB6024E0FB785A01BB68134403F5A0637D
:104DC4001A4640F22523D36097F90230002B18DAF3
:104DD400FB785A01BB68134403F5A0631946FB78BA
:104DE4005A01BB68134403F5A063DB6843F4C07342
:104DF400CB6006E00123FB7504E000BF02E000BFC6
:104E040000E000BFBB6803F580631846BB6803F588
:104E140080639A69FB7803F00F03012101FA03F31D
:104E2400134383617B689B6943F000727B689A61DA
:104E340097F90230002B03DA4FF400433B6101E0A1
:104E440000233B6197F82030022B03D14FF4003349
:104E5400FB6001E00023FB60FB785A01BB6813444C
:104E640003F5A06319467B789B0503F0FE52BB78DB
:104E7400DB0203F4F0431A4397F824309B0403F451
:104E840040231A433B8DC3F30A031A433B691A4375
:104E9400FB6813430B6097F82430032B10D1FB7885
:104EA4005A01BB68134403F5A0631946FB785A0101
:104EB400BB68134403F5A0631B6843F000530B6005
:104EC400FB7D18461C37BD465DF8047B704700BF68
:104ED40080B58CB002AFF860B9601346FB71FB6813
:104EE4003B62BB685B78FB614FF480737B83FB6838
:104EF400DB6B03F48073002B29D0BB681B79002B78
:104F040025D1FB79002B0BD1BB685B79012B07D131
:104F1400BB685B781946F86800F03EFA002318E194
:104F2400FB79012B13D1FB695A013B6A134403F546
:104F3400A0631946FB695A013B6A134403F5A06355
:104F4400DB6823F06003CB60BB6800225A71BB6846
:104F54001B69002B18D0BB681B69BA6812891344FB
:104F6400013BBA681289B3FBF2F3FB84FA8C7B8BA6
:104F74009A420BD97B8BFB84FB8CBA68128902FBA7
:104F840003F2BB681A6101E00123FB84BB68DB7890
:104F9400002B06D0FB8CBA68128902FB03F2BB68B3
:104FA4001A61FB695A013B6A134403F5A06318466E
:104FB400BB681B69C3F31202FB8CD904674B0B401B
:104FC4001A43BB689B7A5B0703F0C0431343036136
:104FD400FB79002B09D0FB695A013B6A134403F5A2
:104FE400A0631A46BB68DB6853613B6A03F58063C0
:104FF4009B6803F00103002B0CBF01230023DBB2E9
:105004007B76FB695A013B6A134403F5A063194696
:10501400FB695A013B6A134403F5A0631B6823F040
:1050240000530B60FB695A013B6A134403F5A06308
:105034001946FB695A013B6A134403F5A0631A68D5
:105044007B7E5B0713430B60FB695A013B6A134485
:1050540003F5A0631B68424A1360414B1B6823F0AD
:1050640080433F4A1360BB68DB78002B06D03C4B7F
:105074001B6843F400433A4A136005E0384B1B684D
:1050840023F40043364A1360354B1B6843F0004356
:10509400334A1360FB695A013B6A134403F5A06366
:1050A4001A462F4B1B681360FB79002B01D0002399
:1050B4004FE0BB68DB78002B4AD1BB681B69002B2F
:1050C40046D0BB68DB79032B30D801A252F823F019
:1050D400E550000809510008E5500008095100088E
:1050E400BB681B6903339B08FB82FA8AFB68DB6A93
:1050F4009BB29A421CD9FB689B6943F02002FB686F
:105104009A6115E0BB681B6903339B08FB82FA8A2A
:105114003B6A03F580631B699BB29A420AD9FB6818
:105124009B6943F08062FB689A6103E000BF02E080
:1051340000BF00E000BFBB68D968BB685A78BB6891
:105144001B6998B2002300930346F868FFF770FBCD
:10515400002318462837BD4680BD00BF0000F81F55
:10516400B000002080B485B000AF78607B68FB603D
:10517400FB6803F580635B699BB218461437BD4630
:105184005DF8047B704780B487B000AF78600B464D
:10519400FB707B683B61FB78FB6000237B61FB68F1
:1051A4005A013B69134403F5A0631B689B0C03F08D
:1051B4000303BB60BB68002B02D0BB68022B71D118
:1051C400FB685A013B69134403F5A0631946FB6865
:1051D4005A013B69134403F5A0631B6843F0804301
:1051E4000B607B68DB6A03F47F03002B46D1FB680A
:1051F4005A013B69134403F5A0631946FB685A013D
:105204003B69134403F5A0631B6823F000430B6060
:10521400FB685A013B69134403F5A0631946FB6814
:105224005A013B69134403F5A0631B6843F0004330
:105234000B60FB685A013B69134403F5A0631946EC
:10524400FB685A013B69134403F5A0631B6823F40C
:1052540000430B607B6901337B617B69B3F57A7F23
:105264001ED8FB685A013B69134403F5A0631B680D
:1052740003F00043B3F1004FECD086E0FB685A0121
:105284003B69134403F5A0631946FB685A013B6963
:10529400134403F5A0631B6843F000430B6074E000
:1052A40000BF72E0FB685A013B69134403F5A06335
:1052B4001946FB685A013B69134403F5A0631B6854
:1052C40043F080430B603B6903F580631B6903F47F
:1052D4007F03002B46D1FB685A013B69134403F555
:1052E400A0631946FB685A013B69134403F5A063A4
:1052F4001B6823F000430B60FB685A013B691344AD
:1053040003F5A0631946FB685A013B69134403F58E
:10531400A0631B6843F000430B60FB685A013B69C0
:10532400134403F5A0631946FB685A013B6913440F
:1053340003F5A0631B6823F400430B607B6901330E
:105344007B617B69B3F57A7F1ED8FB685A013B69A0
:10535400134403F5A0631B6803F00043B3F1004F4B
:10536400ECD012E0FB685A013B69134403F5A063D7
:105374001946FB685A013B69134403F5A0631B6893
:1053840043F000430B6000E000BF002318461C37C5
:10539400BD465DF8047B704780B487B000AF786089
:1053A4000B46FB707B687B61FB783B610123FB60F0
:1053B4003B695A017B69134403F5A0631946FB68F2
:1053C400DA04124B134043F000430B613B695A016A
:1053D4007B69134403F5A0631B68BB60BB6823F0BF
:1053E4008043BB60BB6843F00043BB603B695A0128
:1053F4007B69134403F5A0631A46BB68136000235A
:1054040018461C37BD465DF8047B70470000F81F42
:1054140080B586B000AF78607B68FB6000237B6159
:105424007868FFF782F910217868FFF7B9F978688E
:10543400FFF7DCF900233B611FE03B695A01FB687D
:10544400134403F5A0631B68BB60BB6843F080434F
:10545400BB60BB6823F00043BB60BB6823F400431C
:10546400BB603B695A01FB68134403F5A0631A4609
:10547400BB6813603B6901333B613B690F2BDCD98B
:1054840000233B6134E03B695A01FB68134403F594
:10549400A0631B68BB60BB6843F08043BB60BB6810
:1054A40043F00043BB60BB6823F40043BB603B692B
:1054B4005A01FB68134403F5A0631A46BB681360E2
:1054C4007B6901337B617B69B3F57A7F0CD83B69D7
:1054D4005A01FB68134403F5A0631B6803F00043FF
:1054E400B3F1004FECD000E000BF3B6901333B61F6
:1054F4003B690F2BC7D9FB6803F580631A464FF04D
:10550400FF3353617B684FF0FF325A617868FFF7CD
:10551400FBF8002318461837BD4680BD90B589B006
:1055240004AF7860012302220221786800F068FC4D
:105534000346FB73FB7BFF2B02D0FB7B012B01D9C2
:1055440002233DE1FB7B1946786800F03DFC0346ED
:10555400BB73BB7B002B01D0022331E17B68D3F802
:105564007C43502002F030FA0346E3617B68D3F8B1
:105574007C33DB69BB60BB68002B01D102231FE1D4
:1055840050220021B86802F02FFAFB7B7A681A21B6
:1055940001FB03F3134403F24E331B785BB2002B7D
:1055A40015DAFB7B7A681A2101FB03F3134403F237
:1055B4004E331A78BB685A70FB7B7A681A2101FB58
:1055C40003F3134403F554731A88BB685A81BB6808
:1055D4005B781946786801F036FE03461A46BB68C4
:1055E4001A70BB681978BB6858787B6893F81C43B9
:1055F4007B6893F81D33BA685289029203220192A0
:10560400009323460246786801F0EEFDBB681B78E0
:1056140000221946786802F0FDF8002300220A21CE
:10562400786800F0EDFB0346FB73FB7BFF2B02D095
:10563400FB7B012B01D90223C2E0FB7B7A681A2190
:1056440001FB03F3134403F24E331B785BB2002BCC
:1056540016DAFB7B7A681A2101FB03F3134403F285
:105664004E331A78BB68DA73FB7B7A681A2101FB24
:1056740003F3134403F554731A88BB685A8315E083
:10568400FB7B7A681A2101FB03F3134403F24E33C4
:105694001A78BB689A73FB7B7A681A2101FB03F3BF
:1056A400134403F554731A88BB681A83FB7B7A6826
:1056B4001A2101FB03F3134403F256331B785BB244
:1056C400002B16DAFB7B7A681A2101FB03F31344DF
:1056D40003F256331A78BB68DA73FB7B7A681A21B3
:1056E40001FB03F3134403F556731A88BB685A830A
:1056F40015E0FB7B7A681A2101FB03F3134403F2E0
:1057040056331A78BB689A73FB7B7A681A2101FBBB
:1057140003F3134403F556731A88BB681A83BB68F2
:105724009B7B1946786801F08EFD03461A46BB68D8
:105734005A73BB68DB7B1946786801F084FD034625
:105744001A46BB681A73BB68597BBB68987B7B6835
:1057540093F81C437B6893F81D33BA68128B02924A
:1057640002220192009323460246786801F03CFD30
:10577400BB68197BBB68D87B7B6893F81C437B6848
:1057840093F81D33BA68528B02920222019200935D
:1057940023460246786801F027FDBB68002283F89F
:1057A4004C20BB685B7B00221946786802F032F813
:1057B400BB681B7B00221946786802F02BF8002393
:1057C40018461437BD4690BD80B584B000AF7860EC
:1057D4007B68D3F87C33DB69FB60FB681B78002BA8
:1057E4000ED0FB681B781946786801F01CFDFB6835
:1057F4001B781946786801F047FDFB6800221A708F
:10580400FB681B7B002B0ED0FB681B7B194678685A
:1058140001F009FDFB681B7B1946786801F034FD33
:10582400FB6800221A73FB685B7B002B0ED0FB68BD
:105834005B7B1946786801F0F6FCFB685B7B1946D4
:10584400786801F021FDFB6800225A737B68D3F865
:105854007C33DB69002B0BD07B68D3F87C33DB69AA
:10586400184602F0B9F87B68D3F87C330022DA6179
:10587400002318461037BD4680BD80B584B000AF04
:1058840078607B68D3F87C33DB69FB60FB6840336A
:105894001946786800F0B1F80346FB72FB7A002BD6
:1058A40005D17B68D3F8D433022178689847FB7A12
:1058B40018461037BD4680BD80B584B000AF78600F
:1058C4000123FB730023BB737B68D3F87C33DB6950
:1058D400BB60BB6893F84C30042B77D801A252F814
:1058E40023F000BFFD58000803590008335900088D
:1058F400A7590008B55900080023FB736DE0BB6885
:105904009B6C1946786800F097F80346BB73BB7B21
:10591400002B04D1BB68022283F84C2058E0BB7BE7
:10592400012B55D0BB68042283F84C2050E0BB689F
:1059340040331946786800F060F80346BB73BB7BBC
:10594400002B26D1BB68002283F84C20BB6893F857
:105954004420BB689B6C1B799A423BD1BB6893F88B
:105964004620BB689B6C9B799A4233D1BB6893F801
:105974004520BB689B6C5B799A422BD1BB681A6C3F
:10598400BB689B6C1B689A4224D1786800F05AF972
:1059940020E0BB7B012B1DD0BB68042283F84C2084
:1059A40018E0786800F067F8786800F0DCF814E034
:1059B4000021786800F0E5FF0346BB73BB7B002B36
:1059C4000AD1BB68002283F84C2005E000BF04E044
:1059D40000BF02E000BF00E000BFFB7B18461037A9
:1059E400BD4680BD80B483B000AF78600023184604
:1059F4000C37BD465DF8047B704780B582B000AFBC
:105A0400786039607B68A1221A747B6821225A74F9
:105A14007B6800225A827B6800229A827B68072274
:105A2400DA823B6807221946786801F08AF903464E
:105A340018460837BD4680BD80B582B000AF786097
:105A440039607B6821221A747B6820225A747B682F
:105A540000225A827B6800229A827B680722DA82BB
:105A64003B6807221946786801F06BF9034618462B
:105A74000837BD4680BD80B586B002AF78607B68CC
:105A8400D3F87C33DB69FB600023FB72FB6893F87B
:105A94004D30012B02D0022B25D060E0FB685B6AFD
:105AA400FA68128B93420CD9FB68D969FB681A8B8C
:105AB400FB68587B012300930346786801F051FB8F
:105AC4000CE0FB68D969FB685B6A9AB2FB68587B97
